:020000040800F2
:1000000010050020A5010008BB12000847120008D7
:10001000B9120008B90200083D19000800000000EC
:10002000000000000000000000000000691400084B
:10003000FB02000800000000BD120008B91400080F
:10004000BF010008BF010008BF010008BF01000890
:10005000BF010008BF010008BF010008BF01000880
:10006000BF010008BF010008BF010008BF01000870
:10007000BF010008BF010008BF010008BF01000860
:10008000BF010008BF010008BF010008BF01000850
:10009000BF010008BF010008BF010008BF01000840
:1000A000BF010008BF010008BF010008BF01000830
:1000B000BF0100080000000000000000BF010008B0
:1000C000BF0100080000000000000000BF010008A0
:1000D00000000000BF010008BF0100080000000090
:1000E000BF010008BF010008000000000000000080
:1000F0000000000000000000000000000000000000
:10010000000000000000000000000000BF01000827
:100110000000000000000000BF010008BF0100084F
:10012000BF010008BF010008BF010008BF010008AF
:10013000BF010008000000000000000000000000F7
:10014000BF010008BF010008BF010008BF0100088F
:10015000BF010008BF010008BF010008BF0100087F
:10016000BF010008BF010008BF0100080000000037
:10017000BF010008BF0100080000000000000000EF
:10018000BF010008BF010008BF010008DFF810D060
:1001900000F080F8004800477D190008AFF30080A8
:1001A000100500200648804706480047FEE7FEE7A6
:1001B000FEE7FEE7FEE7FEE7FEE7FEE7FEE7FEE717
:1001C000511500088D0100082DE9F05F054600205B
:1001D00092469B4688460646814640241BE02846B8
:1001E00041464746224600F044F853465A46C01A54
:1001F000914110D311461846224600F02BF82D1AD3
:1002000067EB01084F4622460120002100F022F84A
:1002100017EB00094E41201EA4F10104DFDC484623
:1002200031462A46434600F000B830BCBDE8C09FC6
:10023000D2B201E000F8012B491EFBD27047002228
:10024000F6E710B513460A4604461946FFF7F0FFD5
:10025000204610BD202A04DB203A00FA02F10020DB
:1002600070479140C2F1200320FA03F319439040F4
:100270007047202A04DB203A21FA02F0002170475F
:1002800021FA02F3D040C2F12002914008431946FE
:1002900070470000064C074D06E0E06840F001039F
:1002A00094E8070098471034AC42F6D3FFF772FF8A
:1002B000E41C0008041D0008FEE710B504460222F5
:1002C00000213F2001F0D2F8C82000F017F82246A4
:1002D0000021062001F0CAF8BDE810404FF4FA7082
:1002E00000F00CB810B5C2B20021032001F0BEF836
:1002F000BDE81040C82000F001B8704770B5044652
:1003000000F0E0F80546601C02D004480078044480
:1003100000F0D8F8401BA042FAD370BD00000020C6
:100320002DE9FC4FDFF880A1002301250AF1040B21
:1003300003244FF00F0C0BF1040EAEE005FA03F6A8
:1003400032406FD04F68012F05D0022F03D0112FFC
:1003500001D0122F17D1D0F808905F0004FA07F8E7
:1003600029EA08090097D1F80C8008FA07F848EA4A
:100370000908C0F808804768B7430E79C6F300162D
:100380009E403E434660C6684FEA430804FA08F7B9
:10039000BE4301978F6807FA08F73743C7604E6876
:1003A000022E01D0122E13D1DE0800EB8606009635
:1003B000366A5F07FF0E0CFA07F926EA0906D1F83C
:1003C000109009FA07F949EA0609009EC6F820903C
:1003D0000768019EB7430E7906F0030606FA08F691
:1003E0003E4306604E68F60056D5304E376E47F0F5
:1003F00001073766366E23F0030706F00106009604
:100400002B4E3E44B146B6689F074FEA17780CFA68
:1004100008F7BE43B0F1904F05D0264FB84204D143
:10042000012708E038E0002705E0234FB84201D15A
:10043000022700E0072707FA08F73743C9F80870D2
:10044000DAF800605746D1F8048096435FEAC8386E
:1004500000D516433E60DBF800605F46D1F80480AB
:1004600096435FEA883800D516433E60DEF80060A8
:100470007746D1F8048096435FEAC82800D5164332
:100480003E60094F0C373E68D1F8048096435FEA1E
:10049000882800D516433E605B1C0A6832FA03F6D2
:1004A0007FF44CAF00F00AB8000401400010024095
:1004B0000000014000040048000800481CBCBDE8E2
:1004C000E08F0000014880687047000000000020B5
:1004D0000248816802781144816070470000002062
:1004E00010B50024032000F063F8002000F008F8A5
:1004F00008B1012401E000F025F8204610BD0000FD
:1005000070B50E4E05460024307898B14FF47A71DC
:10051000B1FBF0F00A490968B1FBF0F000F0A8FD6A
:1005200040B9102D06D200222946501E00F020F8B6
:10053000756000E00124204670BD0000000000202E
:100540000C000020094808B5016E41F00101016668
:10055000016E01F001010091816D41F080518165D2
:10056000806D00F08050009008BD00000010024037
:10057000F0B40E4B1B680C46C3F30223C3F107050E
:10058000042D00D90425191D072901D2002300E0FC
:10059000DB1E012606FA05F1491E214099409E40C6
:1005A000761E16403143F0BC01F0C9B90CED00E0F5
:1005B000064900F0070208684FF6FF03184040EABA
:1005C0000220034A10430860704700000CED00E071
:1005D0000000FA051649B0F5007F0868C0F3412015
:1005E00009D0022805D0086820F4C06040F480607B
:1005F0000860002070470128FBD0086820F4C06024
:1006000040F4007008600B483222006850430A4AE8
:10061000B0FBF2F0401C00E0401E4A69520501D5D3
:100620000028F9D148694005E3D503207047000050
:10063000007000400C00002040420F00024800689B
:1006400000F4C0607047000000700040024801687C
:1006500041F48071016070470070004002480168F9
:1006600041F0040101607047001002402DE9F84F8D
:100670000446002700889C4D3E46000515D5E06BDA
:1006800060B1B0F5000F04D0B0F5400F2BD00127BA
:100690000AE0E86840F48030E86024E00021201D92
:1006A00000F00EFE07001ED03E462068800338D5BD
:1006B000A86D4FF00008C00009D4A86D40F080502C
:1006C000A865A86D4FF0010800F080500090DFF899
:1006D0001CA2DAF8001041F48071CAF80010FFF78C
:1006E000F1FE814610E0D5F88800E16B20F440006F
:1006F0000843C5F88800D8E7FFF7E4FEA0EB09003F
:10070000022801D9032704E0DAF80000C005F3D578
:10071000EFB33E46B8F1000F03D0A86D20F0805033
:10072000A8652078C00707D0D5F88800216A20F096
:1007300003000843C5F888002078800707D5D5F85E
:100740008800616A20F00C000843C5F88800207812
:10075000800607D5D5F88800A16A20F440600843D8
:10076000C5F888002088800507D5D5F88800616B1A
:1007700020F440200843C5F888002088400509D5AA
:10078000D5F88800A16B20F44010084300E02EE06B
:10079000C5F888002078400607D5D5F88800E16ABA
:1007A00020F440500843C5F888002088C00507D5CC
:1007B000D5F88800216B20F440300843C5F8880044
:1007C00020884FF0006780044FF080684ED5D5F840
:1007D0008800216C20F040600843C5F88800206C38
:1007E000B8423BD1E86840F48010E8603EE0D5F8BC
:1007F000900010F4407014D0216D814211D0D5F8D2
:100800009000D5F8901020F4407041F48031C5F884
:100810009010D5F8901021F48031C5F89010C5F8EB
:100820009000C00711D0FFF74DFE074641F288390E
:1008300007E000BFFFF746FEC11B494501D903266B
:1008400068E7D5F890008007F4D5D5F89000216DC1
:1008500020F440700843C5F890005BE7404505D19F
:100860000121201D00F02CFD00B106462068400348
:1008700017D5D5F88800616C20F040600843C5F8B2
:100880008800606CB84204D1E86840F48010E860E9
:1008900007E0404505D10121201D00F011FD00B108
:1008A00006462088400411D5D5F88800A16C20F0B8
:1008B00040500843C5F88800A06CB0F1805F05D1B6
:1008C0000221201D00F0FCFC00B106462088000437
:1008D00006D555F8880FE16C20F080400843286069
:1008E000304600F005B800000010024000700040E3
:1008F00018BCBDE8E08F00002DE9F0470F46050069
:1009000058D0404E306800F00700B84209D2306835
:1009100020F0070038433060306800F00700B8422C
:1009200048D12878384CC0072CD06868032811D0EB
:10093000022812D0216898B1490500293ADAA16845
:1009400021F003010143A160FFF7BCFD804641F2A5
:10095000883910E021688901EFE721688903ECE715
:100960008907EAE7FFF7AEFDA0EB0801494502D988
:100970000320BDE8F087A068696800F00C00B0EBC8
:10098000810FEFD12878800705D5A068A96820F0ED
:10099000F0000843A060306800F00700B8420BD9AF
:1009A000306820F0070038433060306800F00700FE
:1009B000B84201D00120DCE72878400705D5A068BF
:1009C000E96820F4E0600843A0602878000706D5B5
:1009D000A068296920F4605040EAC100A06000F0DE
:1009E0003FF8A168094AC1F30311515C01F01F01EE
:1009F000C8400749086007480068BDE8F047FFF7AE
:100A00007FBD000000200240001002409C1C000836
:100A10000C00002004000020054806490068896891
:100A2000054AC1F30221515C01F01F01C840704723
:100A30000C00002000100240DC1C0008054806499C
:100A400000688968054AC1F3C221515C01F01F01A9
:100A5000C84070470C00002000100240DC1C000859
:100A600070B52549002318468A68CC6812F00C023C
:100A700004F00306214C4FEA640509D00C2A05D086
:100A8000042A32D0082A00D1284670BD012E10D188
:100A90000B681B0704D4D1F89430C3F3032302E09E
:100AA0000B68C3F30313164E56F82330DAB10C2A41
:100AB000EBD1C86800F00300022818D0032818D032
:100AC0001846CA68CB68C2F30212C3F30623434335
:100AD000521CB3FBF2F2C868C0F34160401C4000F6
:100AE000B2FBF0F070BD184670BD204670BD2046C8
:100AF000E7E72846E5E70000001002400024F40084
:100B0000AC1C00082DE9F84304006FD0FE4DA86826
:100B100000F00C06E86800F003072078C00664D5F2
:100B200076B10C2E01D1012F0AD0A06900282868C7
:100B30007AD040F001002860FFF7C4FC80465DE0F9
:100B40002868800702D5A0690028DED0216A2868BD
:100B5000000703D5286800F0F00004E0D5F8940001
:100B6000F02202EA1010814216D9084600F03EFC3D
:100B700000283BD1286840F0080028602868216AD6
:100B800020F0F000084328606868E16920F47F40A5
:100B900040EA0120686016E0286840F008002860FC
:100BA0002868216A20F0F000084328606868E1693D
:100BB00020F47F4040EA0120686026B9206A00F0F6
:100BC00015FC0028D5D1FFF74BFFA968CF4AC1F328
:100BD0000311515C01F01F01C840CD490860CD48A8
:100BE0000068FFF78DFC00287ED12EE0CAE000BF30
:100BF000FFF768FCA0EB0800022876D82868800779
:100C0000F6D5286840F0080028602868216A20F09E
:100C1000F000084328606868E16920F47F4040EAFA
:100C20000120686011E0FFE720F001002860FFF775
:100C300049FC804606E000BFFFF744FCA0EB08003B
:100C40000228DAD828688007F6D42078C00740D078
:100C5000082E18D00C2E01D1032F14D06068B0F5E7
:100C6000803F17D0B0F5A02F286817D020F480302F
:100C70002860286820F4802028606068E0B1FFF7D1
:100C800021FC804614E02868800322D56068002893
:100C900078D01EE0286840F48030EDE740F48020F2
:100CA0002860F7E7FFF70EFCA0EB08006428A4D843
:100CB00028688003F6D50CE0FFF704FC804605E0C9
:100CC000FFF700FCA0EB0800642896D82868800392
:100CD000F6D4207880073BD5042E11D00C2E01D1FC
:100CE000022F0DD0E06801E0B6E1FFE0002828689F
:100CF0001ED040F480702860FFF7E4FB07460CE04C
:100D0000286840050CD5E0680028C1D008E000BF85
:100D1000FFF7D8FBC01B022893D828684005F7D5F9
:100D20006868217C20F0FE4040EA016068600FE0C6
:100D300020F480702860FFF7C5FB074605E000BF80
:100D4000FFF7C0FBC01B0228B1D828684005F7D4C4
:100D50002078000729D560690028D5F8940012D0C2
:100D600040F00100C5F89400FFF7ACFB074604E033
:100D7000FFF7A8FBC01B022899D8D5F8940080077C
:100D8000F6D512E02BE120F00100C5F89400FFF742
:100D900099FB074605E000BFFFF794FBC01B022844
:100DA00085D8D5F894008007F6D42078400766D51A
:100DB000A86D0027C00008D4A86D40F08050A86539
:100DC000A86D012700F08050009053480168C905C4
:100DD00012D40168814641F480710160FFF772FB13
:100DE000804605E0FFF76EFBA0EB080002287DD8E7
:100DF000D9F80000C005F5D5A068012816D005284F
:100E0000D5F8900017D020F00100C5F89000D5F873
:100E1000900020F0040000BFC5F89000A06841F2E7
:100E20008839C0B1FFF74EFB80460FE0D5F890003F
:100E300040F00100F0E740F00400C5F89000F5E74D
:100E4000FFF740FBA0EB080149454FD8D5F89000CB
:100E50008007F5D50EE0FFF735FB804606E000BFC2
:100E6000FFF730FBA0EB080149453FD8D5F89000CB
:100E70008007F5D41FB1A86D20F08050A8652078B8
:100E8000800628D5606A0028D5F8980012D040F076
:100E90000100C5F89800FFF715FB074605E000BF05
:100EA000FFF710FBC01B022820D8D5F89800800758
:100EB000F6D510E020F00100C5F89800FFF702FB1E
:100EC000074604E0FFF7FEFAC01B02280ED8D5F84B
:100ED00098008007F6D4A06AA8B1022824D00C2E6E
:100EE0007DD0286820F08070286000E0B3E028689A
:100EF000000103D4E86820F00300E860E8680749CF
:100F00000840E8600CE09FE0001002409C1C0008D4
:100F10000C0000200400002000700040FFFFEEFEE7
:100F2000FFF7D0FA044699E0E868E26A00F00301AE
:100F3000914226D1216B00F07002090110399142D3
:100F40001FD1626B00F4FE41B1EB022F19D194F86E
:100F5000382000F07841B1EBC26F12D1A18F00F4BC
:100F6000C00249084905A1F50011914209D194F840
:100F7000401000F0C06049084906A1F100718142AB
:100F80004BD00C2E6FD0286840016CD4286820F01C
:100F900080702860FFF796FA064604E0FFF792FAA1
:100FA000801B022857D828688001F7D4F4E90B0188
:100FB0006FF00F0202EB01110843218A5204490825
:100FC00002EB4151A26841EA02210843217D4FF022
:100FD0007E42490802EB41610843217B00E042E088
:100FE00040EAC160E968214A11400843E860286886
:100FF00040F080702860E86840F08070E860FFF79B
:1010000061FA044605E000BFFFF75CFA001B022806
:1010100021D828688001F7D523E02868800120D4F2
:10102000286840F080702860E86840F08070E860D0
:10103000FFF748FA044604E0FFF744FA001B0228D1
:1010400009D828688001F7D50BE000BFFFF73AFA0E
:10105000001B022802D90320BDE8F883286880011C
:10106000F4D40020F8E70120F6E700008C809D0111
:1010700010B5401EB0F1807F01D3012010BD4FF0AC
:10108000E02460610F21601700F059FC0020A0618E
:1010900007202061002010BD10B5040002D0606F51
:1010A00010B107E0012010BD002084F87000204638
:1010B00000F026F8242060672068016821F0010113
:1010C0000160204600F0F6FA0128ECD0606A10B109
:1010D000204600F05FFA2068416821F490414160A9
:1010E0002068816821F02A0181602068016841F050
:1010F000010101602046BDE8104000F0AFBA0000D9
:10110000F0B587B0044614216846FFF798F81D4FE4
:10111000266800221C490223032407254FF0904033
:10112000BE4211D10E6E46F480460E660E6E06F477
:1011300080460596CE6C46F00106CE64C96C01F07F
:1011400001010591610213E0104FBE4218D18E6D6E
:1011500046F400368E658E6D06F400360596CE6C2C
:1011600046F00106CE64C96C01F0010105910C2125
:10117000CDE9001302AE694686E83400FFF7D0F8E7
:1011800007B0F0BD003801400010024000440040AC
:101190002DE9F8430446406F1F4616460D462028A9
:1011A0004FD1CDB1C6B194F87000012849D00120CB
:1011B00084F870004FF00008C4F87C80212060673C
:1011C000FFF780F9A4F850608146A4F85260A06847
:1011D000B0F5805F03D004E00120BDE8F88320690A
:1011E00028B12E465FF0000584F8708010E00026DC
:1011F000FAE78021204600F04FFBB8B9C6B116F8D7
:10120000010B21680885B4F85200401EA4F8520072
:10121000B4F852004B464FF0000200970028E8D186
:101220004FF04001204600F037FB30B10320D4E7F7
:1012300035F8020BC0F30800E3E7202060670020C8
:10124000CBE70220C9E7FEE70C4810B50A49016068
:101250004FF416514160002181600C22C160C0E949
:1012600004128161C16101624162FFF715FF00282C
:1012700001D072B6FEE710BD00380140100000201A
:101280000C4810B50A4901604FF4964141600021B5
:1012900081600C22C160C0E904128161C1610162F8
:1012A0004162FFF7F9FE002801D072B6FEE710BDDB
:1012B0000044004090000020FEE7FEE77047000079
:1012C0002DE9F041444C05468846E0680026810738
:1012D00028680DD0E16801F00301814216D1A8B160
:1012E000E0686968C0F30210401C88420ED120E01B
:1012F000012804D0022805D0032807D108E021687E
:10130000890701E021684905002907DB01265FE024
:101310002168890302D421684903F5E7E1686A6816
:101320006FF00F0321F0730103EB0212114301432D
:10133000E160206820F080602060FFF7C3F8074676
:1013400005E000BFFFF7BEF8C01B022837D82068B1
:101350000001F7D4B8F1000F18D0B8F1010F1DD07B
:10136000287D4FF07E41400801EB4060A96840EACB
:1013700001202169194A114008432061206840F08A
:1013800080602060FFF79EF807461AE0A868297B76
:10139000000240EAC1602169114AECE7288A11493C
:1013A000400801EB4050A96840EA012021690E4A3B
:1013B000E1E700BFFFF786F8C01B022801D903262A
:1013C00006E020680001F5D52069A969084320617D
:1013D0003046BDE8F081000000100240FF80FFF9B8
:1013E000FF80FF070000E0FFFF809FFFF8B51C4D66
:1013F00006460024A86DC00002D5FFF71FF90DE0D6
:10140000A86D40F08050A865A86D00F08050009055
:10141000FFF714F9A96D21F08051A965B0F5007F9F
:1014200004D0802E07D94FF003040AE0802E08D99B
:10143000A02E01D804E001D1022402E0702E00D1D8
:1014400001240848016821F0070121430160006878
:1014500000F00700A04201D00120F8BD0020F8BD37
:10146000001002400020024070470000FEB50EA6AA
:10147000431870CE8DE87000134403F205135B42ED
:101480008DF805108DF803008DF80620180A8DF8E8
:1014900007008DF808304FF0FF330A2269460548EF
:1014A000FFF776FEFEBD00007EFF06000000000094
:1014B00000EF000010000020FFF70AB810B5ACB034
:1014C000442115A8FEF7BBFE142126A8FEF7B7FE9F
:1014D00054216846FEF7B3FEFFF7B8F81B4850F8F2
:1014E000901F21F0180101601420159001200024A4
:1014F0001790CDE91B0470201D901F9415A8FFF7CD
:1015000001FB08B172B6FEE70F20CDE9260428944E
:101510002994002126A82A94FFF7EEF908B172B6A3
:10152000FEE703200090089409946846FFF79EF8B0
:1015300008B172B6FEE74FF40070FFF74BF808B140
:1015400072B6FEE7FFF78AF82CB010BD001002401B
:101550000D48016841F4700101600C48016841F0D8
:1015600001010160002181600268094B1A4002609C
:101570008214C260026822F4802202608161024902
:10158000C00380390860704788ED00E00010024019
:10159000FFFFF6EA90F82410C90706D001684A68F0
:1015A000836A22F400321A434A6090F824108907B3
:1015B00006D501684A68C36A22F480321A434A6039
:1015C00090F82410490706D501684A68036B22F495
:1015D00080221A434A6090F82410090706D5016852
:1015E0004A68436B22F400421A434A6090F8241080
:1015F000C90606D501688A68836B22F480521A43B3
:101600008A6090F82410890606D501688A68C36B41
:1016100022F400521A438A6090F82410490611D52A
:1016200001684A68036C22F480121A434A60016C14
:10163000B1F5801F06D101684A68436C22F4C002EC
:101640001A434A6090F82410090606D501684A68D2
:10165000806C22F4002202434A607047F8B50026ED
:101660000446C667FEF72EFF0546206800686FF047
:101670007E47000708D52B4600224FF40011204674
:10168000009700F009F960B92068006840070AD5A2
:101690002B4600224FF480012046009700F0FCF812
:1016A00008B10320F8BD20206067A06784F870604F
:1016B0000020F8BD2DE9F0410446016880682269E8
:1016C000E3691043626900251A4310436B4F0A68AF
:1016D0006B4B1A4002430A6020684168E26821F4BB
:1016E0004051114341602168A069B94201D0226A8A
:1016F00010438A6822F4306202438A606149236899
:1017000061488B420DD1D0F8880010F0030006D05C
:10171000012838D0022834D0032821D135E0012116
:101720001FE05A498B420BD1D0F8880010F00C0012
:1017300025D0042827D0082823D00C2810D124E055
:10174000BB420DD1D0F8880010F4406017D0B0F53E
:10175000806F18D0B0F5006F13D0B0F5406F14D083
:1017600010214B4800264FF40042BB422FD171B1EB
:10177000022912D004290DD0082973D125E00021B7
:10178000EFE70221EDE70421EBE70821E9E7FFF7A6
:1017900043F901E0FFF764F9F0B3626802EB42013C
:1017A00081425FD8B0EB023F5CD8010E00027308A3
:1017B0004FEA3207C01959410023FEF705FD354AAB
:1017C000A0F54071914251D94CE01046E5E7E3693C
:1017D0004FF6EF77934229D1092943D2DFE801F090
:1017E00005080E420B4242422400FFF715F904E0BF
:1017F000FFF724F901E0FFF733F968B141006068B1
:1018000001EB5001B1FBF0F080B2A0F11001B94240
:1018100028D84FF6F07100E02AE00140C0F3420002
:1018200001432068C16023E01046E7E7092919D287
:10183000DFE801F005080E180B1818181A00FFF75A
:10184000EBF804E0FFF7FAF801E0FFF709F978B1E7
:10185000616800EB5100B0FBF1F080B2A0F1100123
:10186000B94203D9012503E01046F1E72168C860B9
:10187000266628466666BDE8F081000000800040CC
:10188000F369FFEF003801400010024000440040BF
:101890000024F400FFFC0F002DE9F0479A4617469C
:1018A0000E4604464FF000094FF02008089D39E02D
:1018B000681C37D0FEF706FEA0EB0A00A84222D82B
:1018C0000DB32068016849072CD5C069C0430005E5
:1018D00028D421684FF4006008622068016821F470
:1018E000D07101602068816821F001018160C4F835
:1018F0007480C4F87880C4F87C8000BF84F870904D
:101900000320BDE8F0872068016821F4D0710160F0
:101910002068816821F001018160C4F87480C4F8F6
:101920007880EBE72068C06936EA000004D0002028
:10193000B842BDD00020E4E70120F9E7FEE709073F
:10194000090E002804DB00F1E02080F80014704745
:1019500000F00F0000F1E02080F8141D704702E055
:1019600008C8121F08C1002AFAD17047704700202A
:1019700001E001C1121F002AFBD1704786B0FEF7BB
:10198000AFFDFFF79BFDC148C16C41F00401C1648C
:10199000C16C01F004010491C16C41F00101C1640A
:1019A000C06C00F001000490FFF74EFCFFF768FCEC
:1019B0002820FEF782FC20208DF8040000208DF8FE
:1019C0000800B3A000680090B2A00068039040F641
:1019D000B830FEF793FC6C4603AD4FF0FF3640F68F
:1019E000AC574FF4FA6840F2465933460122694633
:1019F000A948FFF7CDFB3346012201A9A648FFF70E
:101A0000C7FB33460122611CA348FFF7C1FB3346E5
:101A1000012201A9A048FFF7BBFB3846FEF76EFC88
:101A20003346012269469C48FFF7B2FB3346012248
:101A300002A99948FFF7ACFB33460122611C964886
:101A4000FFF7A6FB3346012202A99348FFF7A0FB4C
:101A50000120FEF747FC4046FEF750FC33460122CA
:101A600003A98D48FFF794FB3346012201A98A4858
:101A7000FFF78EFB33460122691C8748FFF788FB7E
:101A80003346012201A98448FFF782FB4846FEF74E
:101A900035FC3346012269467F48FFF779FB334620
:101AA000012201A97C48FFF773FB33460122611C28
:101AB0007948FFF76DFB3346012201A97648FFF70D
:101AC00067FB3846FEF71AFC334601226946724826
:101AD000FFF75EFB3346012202A96F48FFF758FB70
:101AE00033460122611C6C48FFF752FB334601224A
:101AF00002A96948FFF74CFB0220FEF7F3FB4046C2
:101B0000FEF7FCFB3346012203A96348FFF740FBC5
:101B10003346012201A96048FFF73AFB3346012210
:101B2000691C5D48FFF734FB3346012201A95A487E
:101B3000FFF72EFB4846FEF7E1FB334601226946DC
:101B40005548FFF725FB3346012201A95248FFF70C
:101B50001FFB33460122611C4F48FFF719FB334638
:101B6000012201A94C48FFF713FB3846FEF7C6FBDC
:101B70003346012269464848FFF70AFB33460122F3
:101B800002A94548FFF704FB33460122611C424885
:101B9000FFF7FEFA3346012202A93F48FFF7F8FAA1
:101BA0000320FEF79FFB4046FEF7A8FB33460122C9
:101BB00003A93948FFF7ECFA3346012201A9364858
:101BC000FFF7E6FA33460122691C3348FFF7E0FAD3
:101BD0003346012201A93048FFF7DAFA4846FEF7FA
:101BE0008DFB3346012269462B48FFF7D1FA334675
:101BF000012201A92848FFF7CBFA33460122611CD4
:101C00002548FFF7C5FA3346012201A92248FFF70C
:101C1000BFFA3846FEF772FB3346012269461E487A
:101C2000FFF7B6FA3346012202A91B48FFF7B0FAC4
:101C300033460122611C1848FFF7AAFA33460122F5
:101C400002A91548FFF7A4FA0420FEF74BFB404613
:101C5000FEF754FB3346012269460F48FFF798FA16
:101C60003346012200210C48FFF792FA3346012245
:101C7000611C0948FFF78CFA33460122002106480F
:101C8000FFF786FA3046FEF739FBAEE60010024059
:101C9000C2CA0000C1CA000090000020000000007D
:101CA000000000000102030406070809A0860100E5
:101CB000400D0300801A060000350C0040420F0062
:101CC00080841E0000093D0000127A000024F40008
:101CD00000366E010048E801006CDC0200000000E4
:101CE00001020304041D0008000000201000000091
:101CF0005E190008141D00081000002000050000F7
:101D00006E19000801000000100000000000000033
:041D100000093D0089
:040000050800018D61
:00000001FF
