:020000040800F2
:10000000E0050020A50100081B1C000823180008BB
:10001000191C0008B9020008A12200080000000015
:10002000000000000000000000000000C91D0008E2
:10003000FB020008000000001D1C0008191E00083B
:10004000BF010008BF010008BF010008BF01000890
:10005000BF010008BF010008BF010008BF01000880
:10006000BF010008BF010008BF010008BF01000870
:10007000BF010008BF010008BF010008BF01000860
:10008000BF010008BF010008BF010008BF01000850
:10009000BF010008BF010008BF010008BF01000840
:1000A000BF010008BF010008BF010008BF01000830
:1000B000BF0100080000000000000000BF010008B0
:1000C000BF0100080000000000000000BF010008A0
:1000D00000000000BF010008BF0100080000000090
:1000E000BF010008BF010008000000000000000080
:1000F0000000000000000000000000000000000000
:10010000000000000000000000000000BF01000827
:100110000000000000000000BF010008BF0100084F
:10012000BF010008BF010008BF010008BF010008AF
:10013000BF010008000000000000000000000000F7
:10014000BF010008BF010008BF010008BF0100088F
:10015000BF010008BF010008BF010008BF0100087F
:10016000BF010008BF010008BF0100080000000037
:10017000BF010008BF0100080000000000000000EF
:10018000BF010008BF010008BF010008DFF810D060
:1001900000F080F80048004711230008AFF300800A
:1001A000E00500200648804706480047FEE7FEE7D6
:1001B000FEE7FEE7FEE7FEE7FEE7FEE7FEE7FEE717
:1001C000B51E00088D0100082DE9F05F05460020EE
:1001D00092469B4688460646814640241BE02846B8
:1001E00041464746224600F044F853465A46C01A54
:1001F000914110D311461846224600F02BF82D1AD3
:1002000067EB01084F4622460120002100F022F84A
:1002100017EB00094E41201EA4F10104DFDC484623
:1002200031462A46434600F000B830BCBDE8C09FC6
:10023000D2B201E000F8012B491EFBD27047002228
:10024000F6E710B513460A4604461946FFF7F0FFD5
:10025000204610BD202A04DB203A00FA02F10020DB
:1002600070479140C2F1200320FA03F319439040F4
:100270007047202A04DB203A21FA02F0002170475F
:1002800021FA02F3D040C2F12002914008431946FE
:1002900070470000064C074D06E0E06840F001039F
:1002A00094E8070098471034AC42F6D3FFF772FF8A
:1002B0000C2700082C270008FEE710B50446022290
:1002C00000213F2001F082FDC82000F017F82246EF
:1002D0000021062001F07AFDBDE810404FF4FA70CD
:1002E00000F00CB810B5C2B20021032001F06EFD81
:1002F000BDE81040C82000F001B8704770B5044652
:1003000000F0E4F80546601C02D00448007804447C
:1003100000F0DCF8401BA042FAD370BD20000020A2
:100320002DE9FC4FDFF880A1002301250AF1040B21
:1003300003244FF00F0C0BF1040EAEE005FA03F6A8
:1003400032406FD04F68012F05D0022F03D0112FFC
:1003500001D0122F17D1D0F808905F0004FA07F8E7
:1003600029EA08090097D1F80C8008FA07F848EA4A
:100370000908C0F808804768B7430E79C6F300162D
:100380009E403E434660C6684FEA430804FA08F7B9
:10039000BE4301978F6807FA08F73743C7604E6876
:1003A000022E01D0122E13D1DE0800EB8606009635
:1003B000366A5F07FF0E0CFA07F926EA0906D1F83C
:1003C000109009FA07F949EA0609009EC6F820903C
:1003D0000768019EB7430E7906F0030606FA08F691
:1003E0003E4306604E68F60056D5304E376E47F0F5
:1003F00001073766366E23F0030706F00106009604
:100400002B4E3E44B146B6689F074FEA17780CFA68
:1004100008F7BE43B0F1904F05D0264FB84204D143
:10042000012708E038E0002705E0234FB84201D15A
:10043000022700E0072707FA08F73743C9F80870D2
:10044000DAF800605746D1F8048096435FEAC8386E
:1004500000D516433E60DBF800605F46D1F80480AB
:1004600096435FEA883800D516433E60DEF80060A8
:100470007746D1F8048096435FEAC82800D5164332
:100480003E60094F0C373E68D1F8048096435FEA1E
:10049000882800D516433E605B1C0A6832FA03F6D2
:1004A0007FF44CAF00F00AB8000401400010024095
:1004B0000000014000040048000800481CBCBDE8E2
:1004C000E08F0069084000D0012070470148806833
:1004D000704700002000002090F84120202A24D1FD
:1004E00090F84020012A20D0012280F840202422C8
:1004F00080F841200268136823F00103136002684A
:10050000136823F480531360026813680B4313606D
:1005100001680A6842F001020A60202180F8411057
:10052000002180F84010084670470220704790F87C
:100530004120202A22D190F84020012A1ED00122F9
:1005400080F84020242280F841200268136823F0BC
:10055000010313600268136823F4706343EA012106
:10056000116001680A6842F001020A60202180F8E7
:100570004110002180F84010084670470220704763
:1005800070B5040004D094F84100002510B106E0D5
:10059000012070BD84F84050204600F0B3F92420BB
:1005A00084F841002068016821F001010160606861
:1005B000216820F0706008612068816821F40041A2
:1005C0008160E0680128A06807D040F404402168F9
:1005D0008860E068022803D006E040F40040F6E7B7
:1005E00021684FF40060486020684168114A114357
:1005F00041602068C16821F40041C160D4E9040170
:100600000843A16940EA01202168C860D4E90701D4
:100610000843216808602068016841F00101016019
:100620006564202084F84100256384F8425000204E
:1006300070BD0000008000022DE9FF4F83B004462A
:10064000DDE9108790F84100DDF848909A4693461E
:10065000202874D15FEA080014D09FB194F84000BC
:1006600001286CD0012084F84000FFF72FFF0646D8
:10067000012200901923D103204601F0A1F900289E
:1006800071D103E04FF4007060646CE0222084F8C4
:100690004100402084F8420000256564C4F82480AD
:1006A00067856563CDE9009653465A46204604990E
:1006B00001F00CF910B184F8405054E0618D3548D8
:1006C000FF274FF080784FF0007AFF2904D9278563
:1006D0003A464346009005E0618D2185009094F8EC
:1006E000282053462046049901F054F94B46002235
:1006F00004212046009601F063F9A0BB2068406AFF
:10070000616A0870606A401C6062208D401E81B280
:100710002185608D401E6085608DD8B1D1B94B4672
:10072000002280212046009601F04AF9D8B9608D58
:10073000FF2805D927853A464346009506E026E07E
:10074000608D2085009594F8282053462046049912
:1007500001F020F9608D0028C8D132464946204674
:1007600001F05AF918B1012007B000F017B821685C
:100770002020C86121684A68074B1A404A6084F803
:10078000410084F8425084F840500020ECE70220F9
:10079000EAE700000024008000E800FE30BCBDE86D
:1007A000C08F00002DE9FF4F83B00446DDE91087BC
:1007B00090F84100DDF848909A469346202871D180
:1007C0005FEA080014D09FB194F84000012869D076
:1007D000012084F84000FFF779FE064601220090D0
:1007E0001923D103204601F0EBF800286ED103E075
:1007F0004FF40070606469E0212084F841004020DB
:1008000084F8420000256564C4F824806785656328
:10081000CDE9009653465A462046049901F088F8DF
:1008200010B184F8405051E0608DFF274FF0807880
:100830004FF0007AFF2804D927853A4643460095B1
:1008400005E0608D2085009594F8282053462046C9
:10085000049901F09FF832464946204601F002F91A
:10086000A0BB606A216800788862606A401C606290
:10087000608D401E6085208D401E80B22085618D78
:10088000D9B1D0B94B46002280212046009601F014
:1008900097F8D8B9608DFF2805D927853A46434691
:1008A000009506E026E0608D2085009594F82820CC
:1008B00053462046049901F06DF8608D0028CAD196
:1008C00032464946204601F0A7F818B1012007B08A
:1008D00000F014B820682021C16120684268064BEE
:1008E0001A40426084F8411084F8425084F8405025
:1008F0000020ECE70220EAE700E800FE30BCBDE89B
:10090000C08F000010B586B0044614216846FFF77A
:1009100096FC1249206888421ED1114CE06C40F0D0
:100920000200E064E06C694600F002000590C0201F
:1009300000901220019001200290032003900420D7
:1009400004900848FFF7ECFCA06D40F40010A0658F
:10095000A06D00F40010059006B010BD00540040DA
:1009600000100240000400480248816802781144E7
:10097000816070472000002010B50024032000F0A3
:1009800063F8002000F008F808B1012401E000F04D
:1009900025F8204610BD000070B50E4E0546002417
:1009A000307898B14FF47A71B1FBF0F00A490968D8
:1009B000B1FBF0F000F04AFE40B9102D06D2002243
:1009C0002946501E00F020F8756000E00124204602
:1009D00070BD0000200000202C000020094808B550
:1009E000016E41F001010166016E01F0010100910B
:1009F000816D41F080518165806D00F080500090E4
:100A000008BD000000100240F0B40E4B1B680C46FD
:100A1000C3F30223C3F10705042D00D90425191DD2
:100A2000072901D2002300E0DB1E012606FA05F1AA
:100A3000491E214099409E40761E16403143F0BC2D
:100A400001F02FBC0CED00E0064900F00702086839
:100A50004FF6FF03184040EA0220034A10430860A3
:100A6000704700000CED00E00000FA051649B0F5F3
:100A7000007F0868C0F3412009D0022805D008682B
:100A800020F4C06040F480600860002070470128B6
:100A9000FBD0086820F4C06040F4007008600B4888
:100AA0003222006850430A4AB0FBF2F0401C00E0DA
:100AB000401E4A69520501D50028F9D14869400510
:100AC000E3D5032070470000007000402C00002098
:100AD00040420F000248006800F4C0607047000008
:100AE000007000400248016841F480710160704765
:100AF000007000400248016841F004010160704745
:100B0000001002402DE9F84F0446002700889C4D54
:100B10003E46000515D5E06B60B1B0F5000F04D07E
:100B2000B0F5400F2BD001270AE0E86840F4803090
:100B3000E86024E00021201D01F072F807001ED0BB
:100B40003E462068800338D5A86D4FF00008C000ED
:100B500009D4A86D40F08050A865A86D4FF0010839
:100B600000F080500090DFF81CA2DAF8001041F489
:100B70008071CAF80010FFF7A9FC814610E0D5F893
:100B80008800E16B20F440000843C5F88800D8E7EE
:100B9000FFF79CFCA0EB0900022801D9032704E021
:100BA000DAF80000C005F3D5EFB33E46B8F1000F08
:100BB00003D0A86D20F08050A8652078C00707D02A
:100BC000D5F88800216A20F003000843C5F88800A2
:100BD0002078800707D5D5F88800616A20F00C00DE
:100BE0000843C5F888002078800607D5D5F8880026
:100BF000A16A20F440600843C5F888002088800579
:100C000007D5D5F88800616B20F440200843C5F86B
:100C100088002088400509D5D5F88800A16B20F40C
:100C20004010084300E02EE0C5F888002078400618
:100C300007D5D5F88800E16A20F440500843C5F88C
:100C400088002088C00507D5D5F88800216B20F4DE
:100C500040300843C5F8880020884FF000678004C2
:100C60004FF080684ED5D5F88800216C20F04060A8
:100C70000843C5F88800206CB8423BD1E86840F4CE
:100C80008010E8603EE0D5F8900010F4407014D079
:100C9000216D814211D0D5F89000D5F8901020F444
:100CA000407041F48031C5F89010D5F8901021F4CF
:100CB0008031C5F89010C5F89000C00711D0FFF73B
:100CC00005FC074641F2883907E000BFFFF7FEFB4D
:100CD000C11B494501D9032668E7D5F89000800774
:100CE000F4D5D5F89000216D20F440700843C5F884
:100CF00090005BE7404505D10121201D00F090FFE9
:100D000000B106462068400317D5D5F88800616C0D
:100D100020F040600843C5F88800606CB84204D1F8
:100D2000E86840F48010E86007E0404505D1012103
:100D3000201D00F075FF00B106462088400411D543
:100D4000D5F88800A16C20F040500843C5F8880011
:100D5000A06CB0F1805F05D10221201D00F060FF82
:100D600000B106462088000406D555F8880FE16CCE
:100D700020F0804008432860304600F005B80000AD
:100D8000001002400070004018BCBDE8E08F000079
:100D90002DE9F0470F46050058D0404E306800F06E
:100DA0000700B84209D2306820F0070038433060AD
:100DB000306800F00700B84248D12878384CC007A6
:100DC0002CD06868032811D0022812D0216898B16D
:100DD000490500293ADAA16821F003010143A16025
:100DE000FFF774FB804641F2883910E021688901E1
:100DF000EFE721688903ECE78907EAE7FFF766FB7D
:100E0000A0EB0801494502D90320BDE8F087A0689E
:100E1000696800F00C00B0EB810FEFD128788007F3
:100E200005D5A068A96820F0F0000843A0603068EC
:100E300000F00700B8420BD9306820F007003843B3
:100E40003060306800F00700B84201D00120DCE7D4
:100E50002878400705D5A068E96820F4E0600843D9
:100E6000A0602878000706D5A068296920F46050A2
:100E700040EAC100A06000F03FF8A168094AC1F350
:100E80000311515C01F01F01C84007490860074881
:100E90000068BDE8F047FFF77FBD0000002002407A
:100EA00000100240C42600082C000020240000206E
:100EB0000548064900688968054AC1F30221515C6A
:100EC00001F01F01C84070472C00002000100240B4
:100ED000042700080548064900688968054AC1F3E7
:100EE000C221515C01F01F01C84070472C00002056
:100EF000001002400427000870B525490023184659
:100F00008A68CC6812F00C0204F00306214C4FEA08
:100F1000640509D00C2A05D0042A32D0082A00D151
:100F2000284670BD012E10D10B681B0704D4D1F8E0
:100F30009430C3F3032302E00B68C3F30313164E8C
:100F400056F82330DAB10C2AEBD1C86800F0030060
:100F5000022818D0032818D01846CA68CB68C2F3F4
:100F60000212C3F306234343521CB3FBF2F2C868D8
:100F7000C0F34160401C4000B2FBF0F070BD184669
:100F800070BD204670BD2046E7E72846E5E7000033
:100F9000001002400024F400D42600082DE9F84394
:100FA00004006FD0FE4DA86800F00C06E86800F061
:100FB00003072078C00664D576B10C2E01D1012F2D
:100FC0000AD0A069002828687AD040F00100286083
:100FD000FFF77CFA80465DE02868800702D5A069AB
:100FE0000028DED0216A2868000703D5286800F0B1
:100FF000F00004E0D5F89400F02202EA10108142DB
:1010000016D9084600F0A2FE00283BD1286840F01F
:10101000080028602868216A20F0F0000843286052
:101020006868E16920F47F4040EA0120686016E0CA
:10103000286840F0080028602868216A20F0F00045
:10104000084328606868E16920F47F4040EA012095
:10105000686026B9206A00F079FE0028D5D1FFF734
:101060004BFFA968CF4AC1F30311515C01F01F0186
:10107000C840CD490860CD480068FFF78DFC0028C6
:101080007ED12EE0CAE000BFFFF720FAA0EB0800F7
:10109000022876D828688007F6D5286840F008002E
:1010A00028602868216A20F0F000084328606868FA
:1010B000E16920F47F4040EA0120686011E0FFE729
:1010C00020F001002860FFF701FA804606E000BF2B
:1010D000FFF7FCF9A0EB08000228DAD8286880079F
:1010E000F6D42078C00740D0082E18D00C2E01D19D
:1010F000032F14D06068B0F5803F17D0B0F5A02F53
:10110000286817D020F480302860286820F48020D8
:1011100028606068E0B1FFF7D9F9804614E02868DC
:10112000800322D56068002878D01EE0286840F44B
:101130008030EDE740F480202860F7E7FFF7C6F93C
:10114000A0EB08006428A4D828688003F6D50CE03A
:10115000FFF7BCF9804605E0FFF7B8F9A0EB0800FF
:10116000642896D828688003F6D4207880073BD579
:10117000042E11D00C2E01D1022F0DD0E06801E019
:10118000B6E1FFE0002828681ED040F48070286097
:10119000FFF79CF907460CE0286840050CD5E0688D
:1011A0000028C1D008E000BFFFF790F9C01B02285B
:1011B00093D828684005F7D56868217C20F0FE4068
:1011C00040EA016068600FE020F480702860FFF75B
:1011D0007DF9074605E000BFFFF778F9C01B02283C
:1011E000B1D828684005F7D42078000729D5606970
:1011F0000028D5F8940012D040F00100C5F8940002
:10120000FFF764F9074604E0FFF760F9C01B022806
:1012100099D8D5F894008007F6D512E02BE120F09C
:101220000100C5F89400FFF751F9074605E000BF3B
:10123000FFF74CF9C01B022885D8D5F89400800729
:10124000F6D42078400766D5A86D0027C00008D4E2
:10125000A86D40F08050A865A86D012700F080506F
:10126000009053480168C90512D40168814641F4D1
:1012700080710160FFF72AF9804605E0FFF726F943
:10128000A0EB080002287DD8D9F80000C005F5D5EC
:10129000A068012816D00528D5F8900017D020F0B6
:1012A0000100C5F89000D5F8900020F0040000BFC0
:1012B000C5F89000A06841F28839C0B1FFF706F97F
:1012C00080460FE0D5F8900040F00100F0E740F0D4
:1012D0000400C5F89000F5E7FFF7F8F8A0EB080167
:1012E00049454FD8D5F890008007F5D50EE0FFF7B7
:1012F000EDF8804606E000BFFFF7E8F8A0EB080134
:1013000049453FD8D5F890008007F5D41FB1A86DA6
:1013100020F08050A8652078800628D5606A0028D3
:10132000D5F8980012D040F00100C5F89800FFF7FA
:10133000CDF8074605E000BFFFF7C8F8C01B02283C
:1013400020D8D5F898008007F6D510E020F00100ED
:10135000C5F89800FFF7BAF8074604E0FFF7B6F8BB
:10136000C01B02280ED8D5F898008007F6D4A06AD2
:10137000A8B1022824D00C2E7DD0286820F08070DF
:10138000286000E0B3E02868000103D4E86820F09A
:101390000300E860E86807490840E8600CE09FE067
:1013A00000100240C42600082C0000202400002069
:1013B00000700040FFFFEEFEFFF788F8044699E05A
:1013C000E868E26A00F00301914226D1216B00F047
:1013D00070020901103991421FD1626B00F4FE4185
:1013E000B1EB022F19D194F8382000F07841B1EB1D
:1013F000C26F12D1A18F00F4C00249084905A1F5BE
:101400000011914209D194F8401000F0C0604908E1
:101410004906A1F1007181424BD00C2E6FD0286893
:1014200040016CD4286820F080702860FFF74EF8E7
:10143000064604E0FFF74AF8801B022857D82868C0
:101440008001F7D4F4E90B016FF00F0202EB0111F8
:101450000843218A5204490802EB4151A26841EA3B
:1014600002210843217D4FF07E42490802EB416191
:101470000843217B00E042E040EAC160E968214A7C
:1014800011400843E860286840F080702860E868F0
:1014900040F08070E860FFF719F8044605E000BFEF
:1014A000FFF714F8001B022821D828688001F7D51F
:1014B00023E02868800120D4286840F080702860EC
:1014C000E86840F08070E860FFF700F8044604E048
:1014D000FEF7FCFF001B022809D828688001F7D519
:1014E0000BE000BFFEF7F2FF001B022802D9032029
:1014F000BDE8F88328688001F4D40020F8E70120D3
:10150000F6E700008C809D0170B5040009D0606A88
:10151000002540B125616561A56294F85D0040B188
:101520000CE0012070BD6068B0F5827FF4D0E56109
:10153000F2E784F85C50204600F056F8022084F868
:101540005D002068016821F040010160E1684FF40E
:10155000E062914201D9002001E04FF48050B1F5E2
:10156000706F02D0914200D0A562A188228901F457
:10157000827102F404421143227C02F00202114300
:10158000227D02F001021143228B02F4007211430A
:10159000227F02F03802114394F8202002F08002EA
:1015A0001143228D02F40052114322681160A16997
:1015B000042202EA114194F8242000F4805002F041
:1015C0001002114394F8342002F008021143A2895A
:1015D00002F47062114301432068416025660120D6
:1015E00084F85D00002070BD10B586B0044614215B
:1015F0006846FEF724FE1249206888421ED1114831
:10160000816D41F400418165816D01F400410591D6
:10161000C16C41F00201C164C06C694600F0020077
:1016200005903820009002200190002002900320B5
:101630000390062004900448FEF772FE06B010BD29
:10164000003C0040001002400004004810B5401E5D
:10165000B0F1807F01D3012010BD4FF0E024606124
:101660000F21601700F01DFE0020A06107202061FF
:10167000002010BD10B5040002D0606F10B107E06B
:10168000012010BD002084F87000204600F026F8EC
:10169000242060672068016821F001010160204674
:1016A00000F0BAFC0128ECD0606A10B1204600F0CE
:1016B00023FC2068416821F49041416020688168E2
:1016C00021F02A0181602068016841F00101016078
:1016D0002046BDE8104000F073BC0000F0B587B0B4
:1016E000044614216846FEF7AAFD1D4F2668002215
:1016F0001C490223032407254FF09040BE4211D11C
:101700000E6E46F480460E660E6E06F48046059612
:10171000CE6C46F00106CE64C96C01F00101059162
:10172000610213E0104FBE4218D18E6D46F40036B0
:101730008E658E6D06F400360596CE6C46F0010679
:10174000CE64C96C01F0010105910C21CDE90013B3
:1017500002AE694686E83400FEF7E2FD07B0F0BD50
:101760000038014000100240004400402DE9F843D9
:101770000446406F1F4616460D4620284FD1CDB176
:10178000C6B194F87000012849D0012084F8700097
:101790004FF00008C4F87C8021206067FEF796FEB9
:1017A000A4F850608146A4F85260A068B0F5805F4C
:1017B00003D004E00120BDE8F883206928B12E465B
:1017C0005FF0000584F8708010E00026FAE78021C1
:1017D000204600F013FDB8B9C6B116F8010B216818
:1017E0000885B4F85200401EA4F85200B4F8520024
:1017F0004B464FF0000200970028E8D14FF040011F
:10180000204600F0FBFC30B10320D4E735F8020B92
:10181000C0F30800E3E7202060670020CBE7022048
:10182000C9E7FEE701688A69D243920701D4002222
:101830008A6200688169C943C90703D0816941F0A0
:1018400001018161704700002DE9F0410446006804
:1018500090460E468069C043C00633D40025202739
:1018600020688069C043800615D5701CF8D0FEF74B
:101870002DFEA0EB0800B04201D8002EF0D154F8A4
:10188000440F40F0200044F804096770A5702570EB
:101890000120BDE8F08121681020C8612068C7617F
:1018A0002046FFF7BFFF54F8440B4168064A114039
:1018B0004160206840F0040044F820096777A5776C
:1018C0002577E5E70020E4E700E800FE2DE9F8438E
:1018D00004461646DDE9089714489846DAB20090A7
:1018E0000023204600F056F83A464946204600F0CC
:1018F000B9F8B8B9F5B2B8F1010F08D02168300ACB
:1019000088623A464946204600F0ACF850B9206853
:1019100085624B46002240212046009700F050F897
:10192000002800D00120BDE8F883000000200080DE
:101930002DE9F8430446164615489846DDE9089710
:10194000DAB2C3020090204600F024F83A46494635
:10195000204600F087F8B8B9F5B2B8F1010F08D009
:101960002168300A88623A464946204600F07AF8F3
:1019700050B9206885624B4600228021204600979E
:1019800000F01EF8002800D00120BDE8F883000018
:1019900000200080F0B50568059C68684FF48066FB
:1019A000064FC1F3090106EA545641EA02413E439B
:1019B0001943B043214308436860F0BDFF63FF0350
:1019C0002DE9F0411D4617460E460446DDF8188005
:1019D00008E0681C06D0FEF779FDA0EB0800A842DD
:1019E0000BD855B12068806936EA000012D000207B
:1019F000B842EED00020BDE8F08154F8440F40F02A
:101A0000200044F80409202060700020A07020709D
:101A10000120F0E70120EBE770B516460D460446BD
:101A20000DE0324629462046FFF70EFF08B101209F
:101A300070BDFEF74BFD801BA84207D835B120686A
:101A40008069C0438006ECD4002070BD54F8440F78
:101A500040F0200044F80409202060700020A070AD
:101A60002070E4E770B516460D4604460FE0324696
:101A700029462046FFF7E8FE08B1012070BD681C2A
:101A800005D0FEF723FD801BA84207D835B120689A
:101A90008069C0438007EAD4002070BD54F8440F29
:101AA00040F0200044F80409202060700020A0705D
:101AB0002070E2E700B587B014216846FEF7BFFB4F
:101AC0001248C16C41F00401C164C16C01F0040111
:101AD0000591C16C41F00101C164C16C01F00101CB
:101AE0000591C16C41F00201C164C06C694600F00F
:101AF000020005904FF409600090002001900290D0
:101B00004FF09040FEF70CFC07B000BD0010024003
:101B1000124810B5104901601149416000210122AD
:101B2000C0E90212016141618161C1610162FEF798
:101B300027FD08B172B6FEE700210848FEF7CCFC8D
:101B400008B172B6FEE700210448FEF7F0FC002859
:101B500001D072B6FEE710BD0054004030000020F6
:101B60000E0900200F4810B50D49016000214FF407
:101B7000E0624160C0E902124FF400720161C0E905
:101B80000512016207224162C0E90A120163416342
:101B9000FFF7BAFC002801D072B6FEE710BD0000C6
:101BA000003C00407C0000200C4810B50A49016050
:101BB0004FF416514160002181600C22C160C0E9E0
:101BC00004128161C16101624162FFF753FD002887
:101BD00001D072B6FEE710BD00380140E0000020E1
:101BE0000C4810B50A4901604FF49641416000214C
:101BF00081600C22C160C0E904128161C16101628F
:101C00004162FFF737FD002801D072B6FEE710BD34
:101C10000044004060010020FEE7FEE7704700003E
:101C20002DE9F041444C05468846E06800268107CE
:101C300028680DD0E16801F00301814216D1A8B1F6
:101C4000E0686968C0F30210401C88420ED120E0B1
:101C5000012804D0022805D0032807D108E0216814
:101C6000890701E021684905002907DB01265FE0BB
:101C70002168890302D421684903F5E7E1686A68AD
:101C80006FF00F0321F0730103EB021211430143C4
:101C9000E160206820F080602060FEF717FC0746B6
:101CA00005E000BFFEF712FCC01B022837D82068F1
:101CB0000001F7D4B8F1000F18D0B8F1010F1DD012
:101CC000287D4FF07E41400801EB4060A96840EA62
:101CD00001202169194A114008432061206840F021
:101CE00080602060FEF7F2FB07461AE0A868297BB7
:101CF000000240EAC1602169114AECE7288A1149D3
:101D0000400801EB4050A96840EA012021690E4AD1
:101D1000E1E700BFFEF7DAFBC01B022801D903266A
:101D200006E020680001F5D52069A9690843206113
:101D30003046BDE8F081000000100240FF80FFF94E
:101D4000FF80FF070000E0FFFF809FFFF8B51C4DFC
:101D500006460024A86DC00002D5FEF7BBFE0DE0CC
:101D6000A86D40F08050A865A86D00F080500090EC
:101D7000FEF7B0FEA96D21F08051A965B0F5007F96
:101D800004D0802E07D94FF003040AE0802E08D932
:101D9000A02E01D804E001D1022402E0702E00D16F
:101DA00001240848016821F007012143016000680F
:101DB00000F00700A04201D00120F8BD0020F8BDCE
:101DC000001002400020024070470000FEB50EA641
:101DD000431870CE8DE87000134403F205135B4284
:101DE0008DF805108DF803008DF80620180A8DF87F
:101DF00007008DF808304FF0FF330A226946054886
:101E0000FFF7B4FCFEBD00007EFF060000000000EE
:101E100000EF0000E0000020FEF7A6BD10B5ACB05A
:101E2000442115A8FEF70BFA142126A8FEF707FA9D
:101E300054216846FEF703FAFEF754FE1C4850F89A
:101E4000901F21F01801016014201590012000243A
:101E50001790CDE91B0470201D901F9415A8FFF763
:101E60009DF808B172B6FEE70F20CDE9260428944C
:101E70002994002126A82A94FEF78AFF08B172B699
:101E8000FEE743200090089409940B946846FEF7FF
:101E900039FE08B172B6FEE74FF40070FEF7E6FDBA
:101EA00008B172B6FEE7FEF725FE2CB010BD0000AB
:101EB000001002400D48016841F4700101600C48B7
:101EC000016841F001010160002181600268094B55
:101ED0001A4002608214C260026822F4802202600A
:101EE00081610249C00380390860704788ED00E0D5
:101EF00000100240FFFFF6EA90F82410C90706D050
:101F000001684A68836A22F400321A434A6090F8F2
:101F10002410890706D501684A68C36A22F4803212
:101F20001A434A6090F82410490706D501684A68A8
:101F3000036B22F480221A434A6090F824100907A8
:101F400006D501684A68436B22F400421A434A608E
:101F500090F82410C90606D501688A68836B22F4BC
:101F600080521A438A6090F82410890606D50168C9
:101F70008A68C36B22F400521A438A6090F82410D6
:101F8000490611D501684A68036C22F480121A438D
:101F90004A60016CB1F5801F06D101684A68436C44
:101FA00022F4C0021A434A6090F82410090606D5AC
:101FB00001684A68806C22F4002202434A6070473C
:101FC000F8B500260446C667FEF780FA0546206885
:101FD00000686FF07E47000708D52B4600224FF4BB
:101FE00000112046009700F009F960B920680068E8
:101FF00040070AD52B4600224FF480012046009767
:1020000000F0FCF808B10320F8BD20206067A0674D
:1020100084F870600020F8BD2DE9F04104460168A5
:1020200080682269E3691043626900251A431043FE
:102030006B4F0A686B4B1A4002430A602068416884
:10204000E26821F44051114341602168A069B9421E
:1020500001D0226A10438A6822F4306202438A6007
:102060006149236861488B420DD1D0F8880010F097
:10207000030006D0012838D0022834D0032821D10B
:1020800035E001211FE05A498B420BD1D0F888007E
:1020900010F00C0025D0042827D0082823D00C28C5
:1020A00010D124E0BB420DD1D0F8880010F440607C
:1020B00017D0B0F5806F18D0B0F5006F13D0B0F521
:1020C000406F14D010214B4800264FF40042BB4211
:1020D0002FD171B1022912D004290DD0082973D152
:1020E00025E00021EFE70221EDE70421EBE70821DD
:1020F000E9E7FEF7DDFE01E0FEF7FEFEF0B3626801
:1021000002EB420181425FD8B0EB023F5CD8010E86
:10211000000273084FEA3207C01959410023FEF745
:1021200053F8354AA0F54071914251D94CE0104620
:10213000E5E7E3694FF6EF77934229D1092943D2C6
:10214000DFE801F005080E420B4242422400FEF790
:10215000AFFE04E0FEF7BEFE01E0FEF7CDFE68B183
:102160004100606801EB5001B1FBF0F080B2A0F1DA
:102170001001B94228D84FF6F07100E02AE0014082
:10218000C0F3420001432068C16023E01046E7E746
:10219000092919D2DFE801F005080E180B181818E4
:1021A0001A00FEF785FE04E0FEF794FE01E0FEF75C
:1021B000A3FE78B1616800EB5100B0FBF1F080B292
:1021C000A0F11001B94203D9012503E01046F1E75F
:1021D0002168C860266628466666BDE8F081000072
:1021E00000800040F369FFEF00380140001002401A
:1021F000004400400024F400FFFC0F002DE9F047EC
:102200009A4617460E4604464FF000094FF0200844
:10221000089D39E0681C37D0FEF758F9A0EB0A009A
:10222000A84222D80DB32068016849072CD5C0699F
:10223000C043000528D421684FF40060086220687C
:10224000016821F4D07101602068816821F00101EA
:102250008160C4F87480C4F87880C4F87C8000BFC2
:1022600084F870900320BDE8F0872068016821F4AD
:10227000D07101602068816821F001018160C4F89B
:102280007480C4F87880EBE72068C06936EA000003
:1022900004D00020B842BDD00020E4E70120F9E7D7
:1022A000FEE70907090E002804DB00F1E02080F8B2
:1022B0000014704700F00F0000F1E02080F8141DBA
:1022C000704702E008C8121F08C1002AFAD17047FF
:1022D0007047002001E001C1121F002AFBD17047A6
:1022E0002DE9F04107461C4615460E46142000F025
:1022F00047F92080162000F043F93880182000F0BC
:102300003FF930801A2000F03BF92880BDE8F081C9
:1023100088B0FEF731FBFFF781FDFFF7CBFBFFF73E
:1023200043FCFFF75DFCFFF7F3FBFFF71BFC2820E6
:10233000FDF7C3FF00F096F9554C38B355202070D7
:1023400000210C2000F0A8F9012000F04DF9202018
:102350008DF8040000208DF808004EA00068009061
:102360004DA0006803904DA00068049040F6B8307E
:10237000FDF7C4FF40F2465841F288396D464FF0F0
:10238000FF364FF090474FF4006A02E0AA20207019
:10239000FEE710213846FEF794F8E06051463846D3
:1023A000FEF78FF8206180213846FEF78AF86061D9
:1023B000E168012902D1226902B918B122691143E9
:1023C00011D012E03346012204A93548FFF7CEF9B7
:1023D0003346012201A93248FFF7C8F933460122EA
:1023E0000DF111012AE0012818D033460122694677
:1023F0002B48FFF7BBF93346012201A92848FFF714
:10240000B5F933460122691C2548FFF7AFF9334679
:10241000012201A92248FFF7A9F9BAE733460122B0
:1024200003A91F48FFF7A2F93346012201A91C485E
:10243000FFF79CF9334601220DF10D011848FFF713
:1024400095F93346012201A91548FFF78FF9404657
:10245000FDF754FF3346012269461148FFF786F91C
:102460003346012202A90E48FFF780F933460122C4
:10247000691C0B48FFF77AF93346012202A9084884
:10248000FFF774F900F00EF84846FDF737FF80E7D4
:1024900008000020C2CA0000C1CA0000C2C9000072
:1024A00060010020344B10B59A1E911E881EFFF764
:1024B00017FF314908390889F0B34A8800EE102A1D
:1024C000B8EE401A00EE100AB8EE400AC1EE000A5B
:1024D0009FED2A0A60EE800AFCEEE00A10EE902AD8
:1024E00093B24B808A885A2B00EE902AB8EE601A7D
:1024F00000EE900AF8EE601AC1EE210A60EE800A42
:10250000FCEEE00A10EE902A92B28A80CC8800EEAF
:10251000904AB8EE601A00EE900AF8EE601AC1EE2A
:10252000210A20EE800ABCEEC00A10EE100A80B22A
:10253000C8800CD95A2A00E004E017D25A2815D2D4
:10254000012014E00020C880888048800EE00DD271
:102550005A2A03D95A2801D2022008E05A2B05D260
:102560005A2A03D25A2801D9032000E00420BDE8EA
:102570001040FDF7B7BE00001000002000007F43B0
:102580001FB56423022203A98DE80E0040F08002EB
:10259000012352210748FEF74FF800B1FEE79DF8EE
:1025A0000D009DF80C104FF6FF7202EA002004B0F7
:1025B000084310BD300000201FB500218DF80C101D
:1025C0006423012203A98DE80E0040F0800201235C
:1025D00052210448FEF730F800B1FEE79DF80C00E8
:1025E00004B010BD3000002010B504460020FFF7F5
:1025F000E3FF14B140F0100101E020F01001BDE84C
:102600001040002000F048B810B50121002000F073
:1026100043F80320FDF772FE0321002000F03CF890
:102620000F484078EB280FD006DC88B1C0280DD0C9
:10263000D52813D165200DE0F62803D0FF280DD151
:10264000032007E0182005E0322003E09A2001E093
:102650004FF42F70BDE81040FDF750BE10BD0000D4
:102660000000002010B51220FFF7A6FF442803D079
:10267000102801D0002010BD064C01206060617858
:1026800000F00AF821780F2000F006F8FFF7BCFFF1
:10269000012010BD000000201FB564238DF80C1030
:1026A000012203A98DE80E0040F08002012352218F
:1026B0000348FEF777F8002800D0FEE71FBD0000B2
:1026C00030000020000000000000000001020304B0
:1026D00006070809A0860100400D0300801A0600C5
:1026E00000350C0040420F0080841E0000093D00B0
:1026F00000127A000024F40000366E010048E80160
:10270000006CDC0200000000010203042C2700081A
:102710000000002030000000C22200085C270008F2
:1027200030000020B0050000D222000800000000A8
:102730000000000000000000000000000000000099
:102740000000000000000000000000000100000088
:0C275000100000000000000000093D0027
:040000050800018D61
:00000001FF
